:020000040000fa
:080000000002040000000000f2
:020000040000fa
:04000800fa020000f8
:020000040000fa
:04000c003c030000b1
:020000040000fa
:040010007c0300006d
:020000040000fa
:040014001a030000cb
:020000040000fa
:040018005c03000085
:020000040000fa
:04001c00f6030000e7
:020000040000fa
:040020009c0300003d
:020000040000fa
:04002400f6030000df
:020000040000fa
:04002800f6030000db
:020000040000fa
:04002c00f6030000d7
:020000040000fa
:04003000f6030000d3
:020000040000fa
:04003400f6030000cf
:020000040000fa
:04003800f6030000cb
:020000040000fa
:04003c00f6030000c7
:020000040000fa
:04004000f6030000c3
:020000040000fa
:04004400f6030000bf
:020000040000fa
:04004800f6030000bb
:020000040000fa
:04004c00f6030000b7
:020000040000fa
:04005000f6030000b3
:020000040000fa
:04005400f6030000af
:020000040000fa
:04005800f6030000ab
:020000040000fa
:04005c00f6030000a7
:020000040000fa
:04006000f6030000a3
:020000040000fa
:04006400f60300009f
:020000040000fa
:04006800f60300009b
:020000040000fa
:04006c00f603000097
:020000040000fa
:04007000f603000093
:020000040000fa
:04007400f60300008f
:020000040000fa
:04007800f60300008b
:020000040000fa
:04007c00f603000087
:020000040000fa
:04008000f603000083
:020000040000fa
:04008400f60300007f
:020000040000fa
:04008800f60300007b
:020000040000fa
:04008c00f603000077
:020000040000fa
:04009000f603000073
:020000040000fa
:04009400f60300006f
:020000040000fa
:04009800f60300006b
:020000040000fa
:04009c00f603000067
:020000040000fa
:0400a000f603000063
:020000040000fa
:0400a400f60300005f
:020000040000fa
:0400a800f60300005b
:020000040000fa
:0400ac00f603000057
:020000040000fa
:0400b000f603000053
:020000040000fa
:0400b400f60300004f
:020000040000fa
:0400b800f60300004b
:020000040000fa
:0400bc00f603000047
:020000040000fa
:0400c000f603000043
:020000040000fa
:0400c400f60300003f
:020000040000fa
:0400c800f60300003b
:020000040000fa
:0400cc00f603000037
:020000040000fa
:0400d000f603000033
:020000040000fa
:0400d400f60300002f
:020000040000fa
:0400d800f60300002b
:020000040000fa
:0400dc00f603000027
:020000040000fa
:0400e000f603000023
:020000040000fa
:0400e400f60300001f
:020000040000fa
:0400e800f60300001b
:020000040000fa
:0400ec00f603000017
:020000040000fa
:0400f000f603000013
:020000040000fa
:0400f400f60300000f
:020000040000fa
:0400f800f60300000b
:020000040000fa
:0400fc00f603000007
:020000040000fa
:04010000f603000002
:020000040000fa
:04010400f6030000fe
:020000040000fa
:04010800f6030000fa
:020000040000fa
:04010c00f6030000f6
:020000040000fa
:04011000f6030000f2
:020000040000fa
:04011400f6030000ee
:020000040000fa
:04011800f6030000ea
:020000040000fa
:04011c00f6030000e6
:020000040000fa
:04012000f6030000e2
:020000040000fa
:04012400f6030000de
:020000040000fa
:04012800f6030000da
:020000040000fa
:04012c00f6030000d6
:020000040000fa
:04013000f6030000d2
:020000040000fa
:04013400f6030000ce
:020000040000fa
:04013800f6030000ca
:020000040000fa
:04013c00f6030000c6
:020000040000fa
:04014000f6030000c2
:020000040000fa
:04014400f6030000be
:020000040000fa
:04014800f6030000ba
:020000040000fa
:04014c00f6030000b6
:020000040000fa
:04015000f6030000b2
:020000040000fa
:04015400f6030000ae
:020000040000fa
:04015800f6030000aa
:020000040000fa
:04015c00f6030000a6
:020000040000fa
:04016000f6030000a2
:020000040000fa
:04016400f60300009e
:020000040000fa
:04016800f60300009a
:020000040000fa
:04016c00f603000096
:020000040000fa
:04017000f603000092
:020000040000fa
:04017400f60300008e
:020000040000fa
:04017800f60300008a
:020000040000fa
:04017c00f603000086
:020000040000fa
:04018000f603000082
:020000040000fa
:04018400f60300007e
:020000040000fa
:04018800f60300007a
:020000040000fa
:04018c00f603000076
:020000040000fa
:04019000f603000072
:020000040000fa
:04019400f60300006e
:020000040000fa
:04019800f60300006a
:020000040000fa
:04019c00f603000066
:020000040000fa
:0401a000f603000062
:020000040000fa
:0401a400f60300005e
:020000040000fa
:0401a800f60300005a
:020000040000fa
:0401ac00f603000056
:020000040000fa
:0401b000f603000052
:020000040000fa
:0401b400f60300004e
:020000040000fa
:0401b800f60300004a
:020000040000fa
:0401bc00f603000046
:020000040000fa
:0401c000f603000042
:020000040000fa
:0401c400f60300003e
:020000040000fa
:0401c800f60300003a
:020000040000fa
:0401cc00f603000036
:020000040000fa
:0401d000f603000032
:020000040000fa
:0401d400f60300002e
:020000040000fa
:0401d800f60300002a
:020000040000fa
:0401dc00f603000026
:020000040000fa
:0401e000f603000022
:020000040000fa
:0401e400f60300001e
:020000040000fa
:0401e800f60300001a
:020000040000fa
:0401ec00f603000016
:020000040000fa
:0401f000f603000012
:020000040000fa
:0401f400f60300000e
:020000040000fa
:0401f800f60300000a
:020000040000fa
:0401fc00f603000006
:020000040000fa
:04020000f603000001
:020000040000fa
:04020400f6030000fd
:020000040000fa
:04020800f6030000f9
:020000040000fa
:04020c00f6030000f5
:020000040000fa
:04021000f6030000f1
:020000040000fa
:04021400f6030000ed
:020000040000fa
:04021800f6030000e9
:020000040000fa
:04021c00f6030000e5
:020000040000fa
:04022000f6030000e1
:020000040000fa
:04022400f6030000dd
:020000040000fa
:04022800f6030000d9
:020000040000fa
:04022c00f6030000d5
:020000040000fa
:04023000f6030000d1
:020000040000fa
:04023400f6030000cd
:020000040000fa
:04023800f6030000c9
:020000040000fa
:04023c00f6030000c5
:020000040000fa
:04024000f6030000c1
:020000040000fa
:04024400f6030000bd
:020000040000fa
:04024800f6030000b9
:020000040000fa
:04024c00f6030000b5
:020000040000fa
:04025000f6030000b1
:020000040000fa
:04025400f6030000ad
:020000040000fa
:04025800f6030000a9
:020000040000fa
:04025c00f6030000a5
:020000040000fa
:04026000f6030000a1
:020000040000fa
:04026400f60300009d
:020000040000fa
:04026800f603000099
:020000040000fa
:04026c00f603000095
:020000040000fa
:04027000f603000091
:020000040000fa
:04027400f60300008d
:020000040000fa
:04027800f603000089
:020000040000fa
:04027c00f603000085
:020000040000fa
:04028000f603000081
:020000040000fa
:04028400f60300007d
:020000040000fa
:04028800f603000079
:020000040000fa
:04028c00f603000075
:020000040000fa
:04029000f603000071
:020000040000fa
:04029400f60300006d
:020000040000fa
:04029800f603000069
:020000040000fa
:04029c00f603000065
:020000040000fa
:0402a000f603000061
:020000040000fa
:0402a400f60300005d
:020000040000fa
:0402a800f603000059
:020000040000fa
:0402ac00f603000055
:020000040000fa
:0402b000f603000051
:020000040000fa
:0402b400f60300004d
:020000040000fa
:0402b800f603000049
:020000040000fa
:0402bc00f603000045
:020000040000fa
:0402c000f603000041
:020000040000fa
:0402c400f60300003d
:020000040000fa
:0402c800f603000039
:020000040000fa
:0402cc00f603000035
:020000040000fa
:0402d000f603000031
:020000040000fa
:0402d400f60300002d
:020000040000fa
:0402d800f603000029
:020000040000fa
:0402dc00f603000025
:020000040000fa
:0402e000f603000021
:020000040000fa
:0402e400f60300001d
:020000040000fa
:0402e800f603000019
:020000040000fa
:0402ec00f603000015
:020000040000fa
:0402f000f603000011
:020000040000fa
:0402f400f60300000d
:020000040000fa
:0402f800f603000009
:020000040000fa
:0402fc00f603000005
:020000040000fa
:04030000f603000000
:020000040000fa
:04030400f6030000fc
:020000040000fa
:04030800f6030000f8
:020000040000fa
:04030c00f6030000f4
:020000040000fa
:04031000f6030000f0
:020000040000fa
:04031400f6030000ec
:020000040000fa
:04031800f6030000e8
:020000040000fa
:04031c00f6030000e4
:020000040000fa
:04032000f6030000e0
:020000040000fa
:04032400f6030000dc
:020000040000fa
:04032800f6030000d8
:020000040000fa
:04032c00f6030000d4
:020000040000fa
:04033000f6030000d0
:020000040000fa
:04033400f6030000cc
:020000040000fa
:100400002f0221000eff26000e01880000000000d0
:10041000000020000000e000020032000001200087
:100420002002880014000700f20007000000e0002e
:1004300003003a00807d2000010020000200370008
:100440000000200001002000810f70000100320038
:100450000f000700000020000000e0000200320052
:1004600000000200000000006c0502000000000017
:100470000040da000000fe00200020000000e00044
:1004800002003200100020009001880000000600e9
:10049000a1028800800478000000eb001f003700f4
:1004a000e284440054a0b4009905ba00e2844400f8
:1004b00054a0b4009906ba00e284440054a0b400e9
:1004c0000006eb00476fde00fd07b200ae018800ba
:1004d000636ce10003003a000ad801000000eb0061
:1004e0000e003700606ce10008003a00004deb00a0
:1004f0000a05e800020039003420ec000af0a000f0
:100500008b05e900f9ff3e00040037006168e10057
:10051000010032000086eb000b00070019c7ba008b
:100520001905ba000e04e00003003a000a00e000da
:10053000dbff3a0000000600fe07b200ae028800b2
:100540008a047800f5ff37000cd0a300e20f4d00bd
:100550001c003b0089027800354dba000a05e8000e
:10056000020039003420ec000af0a0008b05e900fd
:100570000f003200254dba000a05e80002003900dc
:100580003420ec000af0a0008b05e90008003200de
:100590000c00e0000600320015cdba000a05e800a4
:1005a000020039003420ec000af0a0008b05e900bd
:1005b0008984e80054a0b4000b00e000e2ff3a0098
:1005c000000006009902ba00055d78008b05e9007d
:1005d000f7ff3200c82ade00055d78008b05e900d0
:1005e000f3ff32000c00e000f1ff320019ddba0029
:1005f000eeff37003600f800809fbe00829fbe00ed
:10060000849fbe00869fbe000000fa00c028a9009b
:100610000000eb005a0207000080fa004f03be0002
:100620004f02be004f01be004f00be003600f90071
:10063000004006003600f800809fbe00829fbe008a
:10064000849fbe00869fbe000000fa005102070092
:10065000c048a90010002000490207000080fa00ed
:100660004f03be004f02be004f01be004f00be0050
:100670003600f900004006003600f800809fbe00fa
:10068000829fbe00849fbe00869fbe000000fa00cd
:10069000c068a90020002000390207000080fa008d
:1006a0004f03be004f02be004f01be004f00be0010
:1006b0003600f900004006003600f800809fbe00ba
:1006c000829fbe00849fbe00869fbe000000fa008d
:1006d000c088a90030002000290207000080fa002d
:1006e0004f03be004f02be004f01be004f00be00d0
:1006f0003600f900004006003600f800809fbe007a
:10070000829fbe00849fbe00869fbe000000fa004c
:10071000c608a90070002000190207000080fa0036
:100720004f03be004f02be004f01be004f00be008f
:100730003600f900004006003600f800809fbe0039
:10074000829fbe00849fbe00869fbe000000fa000c
:100750002146800000102000008060000000e000c2
:1007600003003200c508a900c000200004020700f1
:100770002146800000002800008060000000e000aa
:1007800003003200c5e8a90080002000fc0107003a
:100790002146800000022000008060000000e00090
:1007a00003003200c4a8a90090002000f401070053
:1007b00020468000700060000000e000030032006e
:1007c000c488a900a0002000ed0107002046800099
:1007d000610060000000e00003003200c408a900ce
:1007e000b0002000e6010700ffff37000040da00fc
:0807f0000000fe0000000500fe
:020000040000fa
:1007f8000000fa003f2ea9003f0ea9003e2ea900d6
:100808003e4ea9003ecea9003e6ea9005b6ea80030
:100818005b4ea8000080fa00000006000000fa0005
:100828003f2ea8003f0ea9003e2ea9003e4ea8006c
:100838003ecea8003e6ea8005b6ea8005b4ea800e6
:100848000080fa00000006000000fa003f2ea90010
:100858003f0ea9003e2ea8003e4ea9003ecea9009c
:100868003e6ea8005b6ea9005b4ea8000080fa00ef
:10087800000006000000fa003f2ea9003f0ea90064
:100888003e2ea9003e4ea9003ecea8003e6ea8000e
:100898005b6ea9005b4ea8000080fa00000006000d
:1008a8000000fa003f2ea8003f0ea9003e2ea90026
:1008b8003e4ea8003ecea8003e6ea9005b6ea90081
:1008c8005b4ea8000080fa00000006000000fa0055
:1008d8003f2ea9003f0ea8003e2ea9003e4ea900bb
:1008e8003ecea8003e6ea9005b6ea9005b4ea80034
:1008f8000080fa00000006000000fa003f2ea90060
:100908003f0ea8003e2ea9003e4ea9003ecea900eb
:100918003e6ea9005b6ea9005b4ea8000080fa003d
:10092800000006000000fa003f2ea9003f0ea900b3
:100938003e2ea9003e4ea8003ecea8003e6ea8005e
:100948005b6ea8005b4ea8000080fa00000006005d
:100958000000fa003f2ea9003f0ea9003e2ea90074
:100968003e4ea9003ecea9003e6ea9005b6ea900ce
:100978005b4ea8000080fa00000006000000fa00a4
:100988003f2ea9003f0ea9003e2ea9003e4ea8000a
:100998003ecea8003e6ea9005b6ea9005b4ea80083
:1009a8000080fa00000006000000fa003d8ea80052
:1009b80000f4210001002000610107003d8ea9001c
:1009c8000080fa00000006000000fa0021eea800ee
:1009d80000f42100010020005901070021eea900c0
:1009e8000080fa00000006000000fa0021cea800ee
:1009f80000f42100010020005101070021cea900c8
:100a08000080fa00000006000000fa0021aea800ed
:100a180000f42100010020004901070021aea900cf
:100a28000080fa00000006000200fa00000f7800bb
:100a38001e007800cf80de00920020000300200016
:100a4800820f5000838f58001f003e0000060100ef
:100a5800090037000a0037000b0037000c00370088
:100a68000d0037000e0037000f0037001000370068
:100a780011003700120037005dff07001200370031
:100a880066ff0700100037006fff07000e003700f1
:100a980078ff07000c00370081ff07000a003700c5
:100aa8008aff07000800370093ff07000600370099
:100ab8009cff070004003700a5ff0700020037006d
:100ac800aeff0700000000000080fa0000000600ea
:100ad8000800fa00110107000000eb00000f780081
:100ae8000e80e80010007800cfff0700aeff070077
:100af8006400470010007800cbff0700b2ff070032
:100b08006600470010007800c7ff0700b6ff07001f
:100b18001e007800c4ff0700bbff0700f0ff370086
:100b28000000fa00007c80000080fa000000060047
:100b38000200fa00faff0700000f78001e00780094
:100b4800240007000004e000020032000000280032
:100b58007d0007001e0078002c0007000004e0005c
:100b68000200320000002400770007001e00780011
:100b7800360007000004e0000200320000202000d8
:100b8800710007001e007800400007000004e00024
:100b980002003200000820006b0007001e007800e9
:100ba8004a0007000004e0000200320000042000b0
:100bb800650007001e007800540007000004e000ec
:100bc80002003200000120005f0007000080fa00e8
:100bd800000006000400fa008e80e8008008780013
:100be8000040eb00004f78000e80e800100078000d
:100bf8000000e00002003d0010c0b300004f780084
:100c08001e4078000080fa00000006000400fa0088
:100c18008e80e800800878000040eb00004f7800e4
:100c28000e80e8009000780000002400008060003a
:100c38000000e0000200320010c0b300004f78004e
:100c48001e4078000080fa00000006000400fa0048
:100c58008e80e800800878000040eb00004f7800a4
:100c68000e80e800900078000020200000806000de
:100c78000000e0000200320010c0b300004f78000e
:100c88001e4078000080fa00000006000400fa0008
:100c98008e80e800800878000040eb00004f780064
:100ca8000e80e800900078000008200000806000b6
:100cb8000000e0000200320010c0b300004f7800ce
:100cc8001e4078000080fa00000006000400fa00c8
:100cd8008e80e800800878000040eb00004f780024
:100ce8000e80e8009000780000042000008060007a
:100cf8000000e0000200320010c0b300004f78008e
:100d08001e4078000080fa00000006000400fa0087
:100d18008e80e800800878000040eb00004f7800e3
:100d28000e80e80010007800700060000000e0000d
:100d38000200320010c0b300004f78001e40780057
:100d48000080fa00000006000200fa00000f780098
:100d58001e80ea00017c800001006000007c8800a1
:100d68000080fa00000006000000fa00802fef0063
:100d78000080fa00000006000000fa0010002300be
:100d8800307c880060092000407c88008c2fef00b0
:100d980010042000507c880010102000707c88000f
:100da80060092000807c880010042000907c880066
:100db8009a2fef00b82fef00ba2fef00be2fef00e9
:100dc800002def00a02fef00a42fef00a62fef00bb
:100dd800a82fef00aa2fef00ae2fef00b02fef00e3
:100de800b22fef007200200080072000a109200028
:100df80053f82000804978008149780082497800ba
:100e08000001eb00600420007105200043f8200079
:100e18008049780081497800824978000080fa008a
:100e2800000006000000fa00707c8000ee800a00d6
:100e3800000000000080fb0000f0a7000000ea00ae
:100e48000000ea004f00de00004078000080fa0051
:100e5800000006000000fa00062eef00222eef0028
:100e68003e2eef005a2eef00f0012000107088008f
:100e7800d0ff2100f070880010cb2e00d0718800c0
:100e8800f03f2f00b07288000c2eef00282eef00e4
:100e9800442eef00602eef000a2eef00262eef0002
:100ea800422eef005e2eef00082eef00242eef00fa
:100eb800402eef005c2eef00f0012000007088004b
:100ec800d0092000e070880010082000c071880058
:100ed80000002200a07288000080fa0000000600ce
:100ee8000200fa00000f780021028000200f200085
:100ef800008060001e007000200288000080fa0058
:100f0800000006000000fa00c3e8a8000000000086
:100f1800000000000080fa00000006000000fa004f
:100f2800ccff070094ff070027000700f5ff070024
:100f380000022000eaff07000080fa000000060017
:020000040000fa
:100f4800f03fb1000180b10006003500ee03090052
:100f580000000000403fb1000180b100fbff3d00f0
:100f68001000b000203fb0000200350000800900ea
:080f780000000000000006006b
:020000040000fa
:100f80000200fa00000f78009e00780001808800bf
:100f9000ffff37000000fa002000210080077800e2
:100fa000a0012100000188000080fa000000060076
:020000040000fa
:100fb000021000002000000080000000001000006f
:100fc0000200000082000000ffff0000000000009f
:020000040000fa
:0c0fd0000000fa000080fa00000006009b
:020000040000fa
:020000040005f5
:047e0000ffffff0081
:020000040000fa
:020000040005f5
:047e2000ffffff0061
:020000040000fa
:020000040005f5
:047e30007fffff00d1
:020000040000fa
:020000040005f5
:047e3800bfffff0089
:020000040000fa
:020000040005f5
:047e40007f7fff0041
:020000040000fa
:020000040005f5
:047e4800ffffff0039
:020000040000fa
:020000040005f5
:047e5000dfffff0051
:020000040000fa
:020000040005f5
:047e58000000ff0027
:020000040000fa
:020000040005f5
:047e60000000ff001f
:020000040000fa
:020000040005f5
:047e68000000ff0017
:020000040000fa
:020000040005f5
:047e70000000ff000f
:020000040000fa
:020000040005f5
:047e7800ffffff0009
:020000040000fa
:020000040005f5
:047e8000fffcff0004
:020000040000fa
:020000040005f5
:047e8800ffffff00f9
:020000040000fa
:020000040005f5
:047ff800ffffff0088
:020000040000fa
:020000040100f9
:04300000ffffff00cf
:00000001FF
